:100000000C9434000C9446000C9446000C9446006A
:100010000C9446000C9446000C9446000C94460048
:100020000C9446000C9446000C9446000C94460038
:100030000C9446000C9446000C9446000C94460028
:100040000C9446000C9446000C9446000C94460018
:100050000C9446000C9446000C9446000C94460008
:100060000C9446000C94460011241FBECFEFD8E03C
:10007000DEBFCDBF21E0A0E0B1E001C01D92A630FF
:10008000B207E1F70E9493000C94B2000C940000B8
:10009000E1E8F0E0808185608083089518161906F4
:1000A00084F441E050E0E4E8F0E011821082208125
:1000B00031812B313640D8F34F5F5F4F841795075E
:1000C000A4F70895569A5E9882E090E00E944E0050
:1000D0005E9A089556984E99FECF4E9BFECF4E994C
:1000E000FECF0895CF93DF93C8E0D0E04E9BFECFC4
:1000F00083E090E00E944E004E9B07C0809100017B
:10010000880F81608093000105C080910001880FF5
:10011000809300014E99FECF219741F78091000115
:10012000DF91CF9108950E9448000E9462000E94D2
:100130006A000E947200809304010E947200809302
:1001400001010E947200809303010E94720080935B
:1001500005010E9472008093020181E090E00E94FC
:080160004E00E3CFF894FFCF3D
:00000001FF
