S01700004763634170706C69636174696F6E392E7372656353
S11300000C9434000C9451000C9451000C94510045
S11300100C9451000C9451000C9451000C94510018
S11300200C9451000C9451000C9451000C94510008
S11300300C9451000C948C000C9451000C945100BD
S11300400C9451000C9451000C9451000C945100E8
S11300500C9451000C9451000C9451000C945100D8
S11300600C9451000C94510011241FBECFEFD8E022
S1130070DEBFCDBF11E0A0E0B1E0E4E8F1E002C0F2
S113008005900D92A230B107D9F721E0A2E0B1E0CA
S113009001C01D92A330B207E1F70E94BB000C948B
S11300A0C0000C940000E1E8F0E08081826080836D
S11300B01092850010928400EEE6F0E08081816069
S11300C0808378941092020108958091000180FD4C
S11300D002C0409A01C040988091000190910101B2
S11300E0879709F4419A80910001909101018897C2
S11300F039F4419881E090E09093010180930001EC
S113010080910001909101010196909301018093E7
S1130110000180E090E008951F920F920FB60F92B5
S113012011242F933F934F935F936F937F938F93F8
S11301309F93AF93BF93EF93FF93809102018F5FDF
S11301408093020180910201833020F00E946500B7
S113015010920201FF91EF91BF91AF919F918F9106
S11301607F916F915F914F913F912F910F900FBEAF
S11301700F901F9018958FEF87B90E945300FFCFFF
S1070180F894FFCF1D
S1050184010074
S9030000FC
