S01D00004D4547415F534554424155445F4558414D504C45312E73726563EA
S113000033C0000044C0000042C0000040C00000F3
S11300103EC000003CC000003AC0000038C00000F0
S113002036C0000034C0000032C0000030C0000000
S11300302EC000002CC000002AC0000028C0000010
S113004026C0000024C0000022C0000020C0000020
S11300501EC000001CC000001AC0000018C0000030
S113006016C0000014C0000011241FBECFEFD8E05A
S1130070DEBFCDBF11E0A0E0B1E0EAEEF0E002C0E7
S113008005900D92A830B107D9F718D02CC0B8CF7D
S1130090CF93DF93DC012C91222369F0E0ECF0E0B4
S11300A0C6ECD0E0822F908195FFFDCF88832D93FD
S11300B02C912111F7CFDF91CF9108951092C500B3
S11300C087E68093C40088E18093C100519A5098D8
S11300D086E08093C20080E197E20197F1F780E027
S10D00E091E0D6DFF8CFF894FFCFCB
S10B00EA68656C6C6F0A0D00DF
S9030000FC
