:1000000033C0000044C0000042C0000040C00000F7
:100010003EC000003CC000003AC0000038C00000F4
:1000200036C0000034C0000032C0000030C0000004
:100030002EC000002CC000002AC0000028C0000014
:1000400026C0000024C0000022C0000020C0000024
:100050001EC000001CC000001AC0000018C0000034
:1000600016C0000014C0000011241FBECFEFD8E05E
:10007000DEBFCDBF11E0A0E0B1E0EEECF1E002C0E8
:1000800005900D92A634B107D9F772D09EC0B8CFB3
:100090008091C000882364F08AEFE0ECF0E08150AA
:1000A000908199231CF08111FACF0895882319F0CB
:1000B0008091C600089580E0089580E480937C00DC
:1000C00087E880937A00089585E480937C00EAE7CE
:1000D000F0E0808180648083808186FDFDCF809107
:1000E0007800909179000895D3DF8F36E9F7D0DF5B
:1000F0008B36E9F7CDDF8D30E9F7CADF8A30E9F7D3
:1001000081E00895C5DF8136E9F7C2DF8336E9F77C
:10011000BFDF8336E9F7BCDF8536E9F7B9DF803723
:10012000E9F7B6DF8437E9F7B3DF8536E9F7B0DF03
:100130008436E9F7ADDF8D30E9F7AADF8A30E9F7D9
:1001400081E00895CF93DF93DC012C91222369F0A5
:10015000E0ECF0E0C6ECD0E0822F908195FFFDCF7F
:1001600088832D932C912111F7CFDF91CF910895A2
:10017000A4DF1092C50082E28093C400E0ECF0E0BE
:1001800080818260808388E18093C100519A509879
:1001900086E08093C20080E091E0D4DF81E191E0CD
:1001A000D1DF80E291E0CEDF9FDF8823E9F3AADF91
:1001B0008823E9F33D9888DFC82F80E391E0C2DF10
:0E01C0008C2FCC0F990BBEDFF6CFF894FFCF3B
:1001CE006D616320676574207374617475730D0AB5
:1001DE00006D6163206765742073796E630D0A008C
:1001EE006D6163206A6F696E206F7461610D0A0024
:1001FE006D616320747820756E636E6620312031D8
:06020E0030300D0A000073
:00000001FF
