S0140000554152545F537461727465722E7372656390
S113000033C0000044C0000042C0000040C00000F3
S11300103EC000003CC000003AC0000038C00000F0
S113002036C0000034C0000032C0000030C0000000
S11300302EC000002CC000002AC0000028C0000010
S113004026C0000024C0000022C0000020C0000020
S11300501EC000001CC000001AC0000018C0000030
S113006016C0000014C0000011241FBECFEFD8E05A
S1130070DEBFCDBF11E0A0E0B1E0E8E6F2E002C0EF
S113008005900D92A033B107D9F778D0EBC0B8CF63
S11300908091C000882364F08AEFE0ECF0E08150A6
S11300A0908199231CF08111FACF0895882319F0C7
S11300B08091C600089580E00895E1E8F0E0808131
S11300C08560808308951816190684F441E050E091
S11300D0E4E8F0E011821082208131812B31364036
S11300E0D8F34F5F5F4F84179507A4F70895D0DFC7
S11300F08F36E9F7CDDF8B36E9F7CADF8D30E9F7C4
S1130100C7DF8A30E9F781E00895C2DF8D36E9F769
S1130110BFDF8136E9F7BCDF8336E9F7B9DF8F3516
S1130120E9F7B6DF8437E9F7B3DF8837E9F7B0DFFB
S11301308F35E9F7ADDF8F36E9F7AADF8B36E9F7BC
S1130140A7DF8D30E9F7A4DF8A30E9F781E008956D
S1130150CF93DF93DC012C91222369F0E0ECF0E0F3
S1130160C6ECD0E0822F908195FFFDCF88832D933C
S11301702C912111F7CFDF91CF910895CF93DF9385
S1130180CDB7DEB7A0970FB6F894DEBF0FBECDBFD4
S113019094DF8AE090E097DF1092C50082E28093BA
S11301A0C400E0ECF0E080818260808388E1809389
S11301B0C100519A509886E08093C20080E091E09B
S11301C0C7DF81E191E0C4DF8AE090E07CDF80E278
S11301D091E0BEDF8CDF8823E9F33D9840E1BE0166
S11301E06F5F7F4F80E090E00AD08DE690E0B0DF53
S11301F08DE291E0ADDF89DF8823E9F3EFCFBB2700
S11302004A3031F4992322F4BDE2909581959F4FB1
S113021001C0BB27FB015527AA27880F991FAA1FD6
S1130220A41710F0A41B83955051B9F7A05DAA330D
S113023008F0A95DA193009779F7B111B1931192D8
S1130240CB0100C0DC01FC01672F71917723E1F73A
S1130250329704C07C916D9370836291AE17BF078F
S10B0260C8F30895F894FFCFE0
S11302686D616320676574207374617475730D0A16
S1130278006D6163206765742073796E630D0A00ED
S11302886D6163206A6F696E206F7461610D0A0085
S9030000FC
