:100000000C9434000C945E000C943E000C943E0062
:100010000C943E000C943E000C943E000C943E0068
:100020000C943E000C943E000C943E000C943E0058
:100030000C943E000C943E000C943E000C943E0048
:100040000C9440000C943E000C943E000C943E0036
:100050000C943E000C943E000C943E000C943E0028
:100060000C943E000C943E0011241FBECFEFD8E04C
:10007000DEBFCDBF0E94A5000C94BA000C94000016
:100080001F920F920FB60F9211248F939F9398B1E6
:1000900084E0892788B99F918F910F900FBE0F90B0
:1000A0001F90189581E080936E0016BC85E085BD99
:1000B000089598B182E0892788B908951F920F9218
:1000C0000FB60F9211242F933F934F935F936F932B
:1000D0007F938F939F93AF93BF93EF93FF930E9470
:1000E0005900FF91EF91BF91AF919F918F917F91B7
:1000F0006F915F914F913F912F910F900FBE0F9095
:100100001F901895E1E8F0E080818560808310926F
:10011000850010928400089510928500109284004A
:10012000E4E8F0E02081318182179307D8F780E07E
:1001300090E00895409A80E89EE30E948C004098E9
:1001400080E89EE30E948C0008951AB88FEF87B96B
:100150005A9A0E9482000E945200E9E6F0E08081F3
:1001600081608083E89A80818360808378940E9494
:080170009A00FDCFF894FFCFC7
:00000001FF
