:100000000C9434000C943E000C943E000C943E0082
:100010000C943E000C943E000C943E000C943E0068
:100020000C943E000C943E000C943E000C943E0058
:100030000C943E000C943E000C943E000C943E0048
:100040000C943E000C943E000C943E000C943E0038
:100050000C943E000C943E000C943E000C943E0028
:100060000C943E000C943E0011241FBECFEFD8E04C
:10007000DEBFCDBF0E9457000C9474000C940000AA
:1000800080E480937C0087E880937A00089585E47B
:1000900080937C00EAE7F0E0808180648083808147
:1000A00086FDFDCF809178009091790008951BB86E
:1000B0008FEF8AB98FED87B90E9440000E944700F8
:1000C000823E910524F4409A41984298F7CF0E94CD
:1000D00047008130914024F0409A419A429AEECFF5
:0C00E000409A419A4298EACFF894FFCF72
:00000001FF
