S01700004763634170706C69636174696F6E342E7372656358
S11300000C9434000C943E000C943E000C943E007E
S11300100C943E000C943E000C943E000C943E0064
S11300200C943E000C943E000C943E000C943E0054
S11300300C943E000C943E000C943E000C943E0044
S11300400C943E000C943E000C943E000C943E0034
S11300500C943E000C943E000C943E000C943E0024
S11300600C943E000C943E0011241FBECFEFD8E048
S1130070DEBFCDBF0E9458000C9468000C940000B1
S113008080E480937C0087E880937A00089585E477
S113009080937C0080917A00806480937A008091C0
S11300A07A0086FDFCCF80917800909179000895C4
S11300B01BB88FEF8AB98FED87B90E9440000E9468
S11300C047008115924014F4409AF9CF4098F7CF35
S10700D0F894FFCFCE
S9030000FC
