:100000000C9434000C943E000C943E000C943E0082
:100010000C943E000C943E000C943E000C943E0068
:100020000C943E000C943E000C943E000C943E0058
:100030000C943E000C943E000C943E000C943E0048
:100040000C943E000C943E000C943E000C943E0038
:100050000C943E000C943E000C943E000C943E0028
:100060000C943E000C943E0011241FBECFEFD8E04C
:10007000DEBFCDBF0E9457000C9462000C940000BC
:1000800080E480937C0088E880937A00089585E47A
:1000900080937C00EAE7F0E0808180648083808147
:1000A00086FDFDCF809178009091790008951BB86E
:1000B0008FEF8AB98FED87B90E944000439A0E9462
:0800C0004700FCCFF894FFCFCC
:00000001FF
