S01800004763634170706C69636174696F6E31322E7372656328
S11300000C9434000C9446000C9446000C94460066
S11300100C9446000C9446000C9446000C94460044
S11300200C9446000C9446000C9446000C94460034
S11300300C9446000C9446000C9446000C94460024
S11300400C9446000C9446000C9446000C94460014
S11300500C9446000C9446000C9446000C94460004
S11300600C9446000C94460011241FBECFEFD8E038
S1130070DEBFCDBF21E0A0E0B1E001C01D92A230FF
S1130080B207E1F70E9479000C949E000C940000E2
S1130090E1E8F0E080818560808310928500109211
S11300A08400089582959295907F9827807F982761
S11300B01092850010928400E4E8F0E02081318100
S11300C082179307D8F780E090E00895299A84E096
S11300D090E00E9452002998089580910001909127
S11300E00101880F991F876090930101809300019B
S11300F008958FEF87B984B91AB80E944800109206
S11301000101109200012A980E9466000E94660074
S11301100E946D000E946600C9E0D0E00E946D005C
S11301200E9466000E946D002197C1F70E946D0035
S11301302A9A84E090E00E945200E1CFF894FFCF25
S9030000FC
