:100000000C9434000C9446000C9446000C9446006A
:100010000C9446000C9446000C9446000C94460048
:100020000C9446000C9446000C9446000C94460038
:100030000C9446000C9446000C9446000C94460028
:100040000C9446000C9446000C9446000C94460018
:100050000C9446000C9446000C9446000C94460008
:100060000C9446000C94460011241FBECFEFD8E03C
:10007000DEBFCDBF21E0A0E0B1E001C01D92A23003
:10008000B207E1F70E9486000C94B5000C940000C2
:10009000E1E8F0E080818560808310928500109215
:1000A0008400089582959295907F9827807F982765
:1000B0001092850010928400E4E8F0E02081318104
:1000C00082179307D8F780E090E00895299A84E09A
:1000D00090E00E945200299808958091000190912B
:1000E0000101880F991F909301018093000129B1AC
:1000F000022E000C330B2227330F221F3327822BB3
:10010000932B909301018093000108958FEF87B99D
:1001100084B91AB80E94480010920101109200019F
:100120002A980E94660084E090E00E9452000E949B
:10013000660084E090E00E9452000E94660084E025
:1001400090E00E945200C9E0D0E00E9466000E9448
:100150006D0084E090E00E9452002197B1F72A9A46
:0E01600084E090E00E945200D7CFF894FFCFC9
:00000001FF
