:100000000C9453000C9470000C9470000C947000CD
:100010000C9470000C9470000C9470000C947000A0
:100020000C9470000C9470000C9470000C94700090
:100030000C9470000C9470000C9481000C9470006F
:100040000C9470000C9470000C9470000C94700070
:100050000C9470000C9470000C9470000C94700060
:100060000C9470000C947000B400CF00CF00CF004F
:10007000CF00B800CF00CF00CF00CF00BC00CF0032
:10008000CF00CF00CF00C000CF00CF00CF00CF0007
:10009000C400CF00CF00CF00CF00C800CF00CF00FA
:1000A000CF00CF00CC0011241FBECFEFD8E0DEBFC1
:1000B000CDBF11E0A0E0B1E0E8EDF1E002C00590B5
:1000C0000D92A030B107D9F721E0A0E0B1E001C066
:1000D0001D92A230B207E1F70E94D0000C94EA0012
:1000E0000C94000084B5826084BD89EF87BDEEE684
:1000F000F0E0808182608083789485B5846085BDDE
:1001000008951F920F920FB60F9211248F939F9311
:1001100080910001909101010496909301018093D8
:1001200000019F918F910F900FBE0F901F90189517
:10013000209100013091010182179307ECF3109296
:10014000010110920001089580E480937C0088E80A
:1001500080937A00089505978F31910500F58C5CA6
:100160009F4FFC010C94E400409A429841980895F6
:100170004098419A4298089540984198429A08952B
:10018000409A419A42980895409A4198429A089517
:100190004098419A429A0895409A419A429A089505
:1001A0001BB88FEF8AB98FED87B90E94A4000E9417
:1001B0007200C0E0D0E0CE010E94AB0089E190E087
:1001C0000E9498002596F7CFEE0FFF1F0590F4913F
:0801D000E02D0994F894FFCF23
:00000001FF
