S01700004763634170706C69636174696F6E362E7372656356
S11300000C9453000C9470000C9470000C947000C9
S11300100C9470000C9470000C9470000C9470009C
S11300200C9470000C9470000C9470000C9470008C
S11300300C9470000C9470000C94AB000C94700041
S11300400C9470000C9470000C9470000C9470006C
S11300500C9470000C9470000C9470000C9470005C
S11300600C9470000C9470008F00AA00AA00AA00DF
S1130070AA009300AA00AA00AA00AA009700AA0056
S1130080AA00AA00AA009B00AA00AA00AA00AA002B
S11300909F00AA00AA00AA00AA00A300AA00AA001E
S11300A0AA00AA00A70011241FBECFEFD8E0DEBF2C
S11300B0CDBF11E0A0E0B1E0EEEDF1E002C00590AB
S11300C00D92A230B107D9F721E0A2E0B1E001C05E
S11300D01D92A430B207E1F70E9472000C94ED0067
S11300E00C9400001BB88FEF8AB98FED87B984B5E3
S11300F0826084BD89EF87BDEEE6F0E08081826096
S11301008083789485B5846085BDFFCF05978F3152
S1130110910500F58C5C9F4FFC010C94E700409A1C
S11301204298419808954098419A42980895409879
S11301304198429A0895409A419A42980895409A63
S11301404198429A08954098419A429A0895409A53
S1130150419A429A08951F920F920FB60F9211245A
S11301602F933F934F935F936F937F938F939F93BB
S1130170AF93BF93EF93FF9380910201909103019A
S11301800496909303018093020120910001309121
S113019001012817390724F4109203011092020177
S11301A080910201909103010E948600FF91EF91DA
S11301B0BF91AF919F918F917F916F915F914F917B
S11301C03F912F910F900FBE0F901F901895EE0F37
S11101D0FF1F0590F491E02D0994F894FFCFE1
S10501DEFA0021
S9030000FC
