:100000000C9434000C9449000C9449000C94490061
:100010000C9449000C9449000C9449000C9449003C
:100020000C9449000C9449000C9449000C9449002C
:100030000C9449000C9449000C9449000C9449001C
:100040000C9449000C9449000C9449000C9449000C
:100050000C9449000C9449000C9449000C944900FC
:100060000C9449000C94490011241FBECFEFD8E036
:10007000DEBFCDBF11E0A0E0B1E0E8E0F1E002C0FA
:1000800005900D92A030B107D9F70E9463000C943F
:1000900082000C940000E1E8F0E0808185608083BC
:1000A000109285001092840008951092850010929D
:1000B0008400E4E8F0E08081918181349640D8F3B7
:1000C00080E090E008958FEF87B91AB884B90E9454
:1000D0004B00C3E1D0E0299A8AE090E00E945500ED
:1000E00029988AE090E00E9455002197A1F72A9A6A
:1000F0008AE090E00E9455002A988AE090E00E94F1
:080100005500E7CFF894FFCF92
:00000001FF
