S01800004763634170706C69636174696F6E31312E7372656329
S11300000C9434000C943E000C943E000C943E007E
S11300100C943E000C943E000C943E000C943E0064
S11300200C943E000C943E000C943E000C943E0054
S11300300C943E000C943E000C943E000C943E0044
S11300400C943E000C943E000C943E000C943E0034
S11300500C943E000C943E000C943E000C943E0024
S11300600C943E000C943E0011241FBECFEFD8E048
S1130070DEBFCDBF0E9465000C9478000C94000094
S1130080E1E8F0E080818560808310928500109221
S11300908400089582959295907F9827807F982771
S11300A01092850010928400E4E8F0E02081318110
S11300B082179307D8F780E090E00895299A84E0A6
S11300C090E00E944A00299808958FEF87B984B977
S11300D01AB80E9440002A980E945E000E945E00A6
S11300E00E945E002A9A84E090E00E944A00F3CFC6
S10700F0F894FFCFAE
S9030000FC
